{
  "transactions": [
    {
      "hash": "0x7125c650bf32a52435e414dad7dd794237a50e8fcd363e5cf3fc2964be45de7b",
      "transactionType": "CALL",
      "contractName": null,
      "contractAddress": "0x9616408bc1d81649acd980cc2991fbc9a04f6a0e",
      "function": "applyChainUpdates((uint64,bool,bytes,bytes,(bool,uint128,uint128),(bool,uint128,uint128))[])",
      "arguments": [
        "[(6898391096552792247, true, 0x0000000000000000000000002410415d498ee4aa857956af9572e5e1d3fc7a1f, 0x0000000000000000000000007f2df611e7031edace5e59be545ee4d0a3e8abf3, (false, 0, 0), (false, 0, 0))]"
      ],
      "transaction": {
        "from": "0x6abffc2e29842932754e125327099899fb08ae01",
        "to": "0x9616408bc1d81649acd980cc2991fbc9a04f6a0e",
        "gas": "0x5580a",
        "value": "0x0",
        "input": "0xdb6327dc0000000000000000000000000000000000000000000000000000000000000020000000000000000000000000000000000000000000000000000000000000000100000000000000000000000000000000000000000000000000000000000000200000000000000000000000000000000000000000000000005fbc02272fbf20b700000000000000000000000000000000000000000000000000000000000000010000000000000000000000000000000000000000000000000000000000000140000000000000000000000000000000000000000000000000000000000000018000000000000000000000000000000000000000000000000000000000000000000000000000000000000000000000000000000000000000000000000000000000000000000000000000000000000000000000000000000000000000000000000000000000000000000000000000000000000000000000000000000000000000000000000000000000000000000000000000000000000000000000000000000000000000000000000000000000000000000000000000000000000000000000000000000000000000000000000000000000000000000000000000000000000000200000000000000000000000002410415d498ee4aa857956af9572e5e1d3fc7a1f00000000000000000000000000000000000000000000000000000000000000200000000000000000000000007f2df611e7031edace5e59be545ee4d0a3e8abf3",
        "nonce": "0x8c",
        "chainId": "0xaa36a7"
      },
      "additionalContracts": [],
      "isFixedGasLimit": false
    }
  ],
  "receipts": [
    {
      "status": "0x1",
      "cumulativeGasUsed": "0x12aee23",
      "logs": [
        {
          "address": "0x9616408bc1d81649acd980cc2991fbc9a04f6a0e",
          "topics": [
            "0x8d340f17e19058004c20453540862a9c62778504476f6756755cb33bcd6c38c2"
          ],
          "data": "0x0000000000000000000000000000000000000000000000005fbc02272fbf20b7000000000000000000000000000000000000000000000000000000000000010000000000000000000000000000000000000000000000000000000000000000000000000000000000000000000000000000000000000000000000000000000000000000000000000000000000000000000000000000000000000000000000000000000000000000000000000000000000000000000000000000000000000000000000000000000000000000000000000000000000000000000000000000000000000000000000000000000000000000000000000000000000000000000000000000000000000000000000000000000000000000000000000000000000000000200000000000000000000000007f2df611e7031edace5e59be545ee4d0a3e8abf3",
          "blockHash": "0xdbcdece01a2bd2fe774287dc936875d4bf7ab3086aa60e2247730c349adf38c0",
          "blockNumber": "0x7e6f42",
          "blockTimestamp": "0x681d51d4",
          "transactionHash": "0x7125c650bf32a52435e414dad7dd794237a50e8fcd363e5cf3fc2964be45de7b",
          "transactionIndex": "0xb3",
          "logIndex": "0x13e",
          "removed": false
        }
      ],
      "logsBloom": "0x00000000000000400000200000000000000000000000000000000000000000000000000000000000000000000000000000000000000000000004000000000000000000000000000000000000000000000000000000000000000000000000000000000000000000000000000000000000000000000000000000000000000000000000000000000000000000000000000000000000000000000800000000000000000000000000000000000000000000000000000000000000000000000000000000000000000000000000000000000000000000000000000000000000000000000000000000000000000000000000000000100000000000000100000000000000",
      "type": "0x2",
      "transactionHash": "0x7125c650bf32a52435e414dad7dd794237a50e8fcd363e5cf3fc2964be45de7b",
      "transactionIndex": "0xb3",
      "blockHash": "0xdbcdece01a2bd2fe774287dc936875d4bf7ab3086aa60e2247730c349adf38c0",
      "blockNumber": "0x7e6f42",
      "gasUsed": "0x3a76a",
      "effectiveGasPrice": "0x29945e",
      "from": "0x6abffc2e29842932754e125327099899fb08ae01",
      "to": "0x9616408bc1d81649acd980cc2991fbc9a04f6a0e",
      "contractAddress": null
    }
  ],
  "libraries": [],
  "pending": [],
  "returns": {},
  "timestamp": 1746751957,
  "chain": 11155111,
  "commit": "ce59dec"
}