{
  "transactions": [
    {
      "hash": "0xf5f274c4c9d618c51f6d7b8ca4835fe52c7ae67ca7de61f500a1961cb9c5615b",
      "transactionType": "CREATE",
      "contractName": "Vault",
      "contractAddress": "0x0a3a0f9247a98790afc9ec481c1bfc6efdc6a1fc",
      "function": null,
      "arguments": [
        "0xEaC97ef3aA1626c05302C17E789B985a5b1d9119"
      ],
      "transaction": {
        "from": "0x6abffc2e29842932754e125327099899fb08ae01",
        "gas": "0x56218",
        "value": "0x0",
        "input": "0x60a060405234801561000f575f80fd5b5060405161048b38038061048b83398101604081905261002e9161003f565b6001600160a01b031660805261006c565b5f6020828403121561004f575f80fd5b81516001600160a01b0381168114610065575f80fd5b9392505050565b6080516103ed61009e5f395f8181604f0152818160b60152818161015901528181610204015261029401526103ed5ff3fe608060405260043610610036575f3560e01c806334a4edea14610041578063d0e30db01461008a578063db006a7514610094575f80fd5b3661003d57005b5f80fd5b34801561004c575f80fd5b507f00000000000000000000000000000000000000000000000000000000000000006040516001600160a01b03909116815260200160405180910390f35b6100926100b3565b005b34801561009f575f80fd5b506100926100ae366004610389565b6101e7565b5f7f00000000000000000000000000000000000000000000000000000000000000006001600160a01b0316635257b5666040518163ffffffff1660e01b8152600401602060405180830381865afa158015610110573d5f803e3d5ffd5b505050506040513d601f19601f8201168201806040525081019061013491906103a0565b604051630ab714fb60e11b8152336004820152346024820152604481018290529091507f00000000000000000000000000000000000000000000000000000000000000006001600160a01b03169063156e29f6906064015f604051808303815f87803b1580156101a2575f80fd5b505af11580156101b4573d5f803e3d5ffd5b50506040513492503391507fe1fffcc4923d04b559f4d29a8bfc6cda04eb5b0d3c460751c2402c5c5cc9109c905f90a350565b5f198103610278576040516370a0823160e01b81523360048201527f00000000000000000000000000000000000000000000000000000000000000006001600160a01b0316906370a0823190602401602060405180830381865afa158015610251573d5f803e3d5ffd5b505050506040513d601f19601f8201168201806040525081019061027591906103a0565b90505b604051632770a7eb60e21b8152336004820152602481018290527f00000000000000000000000000000000000000000000000000000000000000006001600160a01b031690639dc29fac906044015f604051808303815f87803b1580156102dd575f80fd5b505af11580156102ef573d5f803e3d5ffd5b50506040515f925033915083908381818185875af1925050503d805f8114610332576040519150601f19603f3d011682016040523d82523d5f602084013e610337565b606091505b5050905080610359576040516303eff1c560e31b815260040160405180910390fd5b604051829033907f222838db2794d11532d940e8dec38ae307ed0b63cd97c233322e221f998767a6905f90a35050565b5f60208284031215610399575f80fd5b5035919050565b5f602082840312156103b0575f80fd5b505191905056fea2646970667358221220718d4e853beaaa622596ed2504287032428933b90b2df820749aa7ad59c1cd3864736f6c63430008180033000000000000000000000000eac97ef3aa1626c05302c17e789b985a5b1d9119",
        "nonce": "0x8a",
        "chainId": "0xaa36a7"
      },
      "additionalContracts": [],
      "isFixedGasLimit": false
    },
    {
      "hash": "0xc9ff314e115496c74af9e20a5eade45be6ad249f4c33485492b9b141c0c0a8cf",
      "transactionType": "CALL",
      "contractName": null,
      "contractAddress": "0xeac97ef3aa1626c05302c17e789b985a5b1d9119",
      "function": "grantMintAndBurnRole(address)",
      "arguments": [
        "0x0A3a0f9247a98790aFc9Ec481c1bfC6efdc6a1fc"
      ],
      "transaction": {
        "from": "0x6abffc2e29842932754e125327099899fb08ae01",
        "to": "0xeac97ef3aa1626c05302c17e789b985a5b1d9119",
        "gas": "0x1063d",
        "value": "0x0",
        "input": "0x7cfb3d710000000000000000000000000a3a0f9247a98790afc9ec481c1bfc6efdc6a1fc",
        "nonce": "0x8b",
        "chainId": "0xaa36a7"
      },
      "additionalContracts": [],
      "isFixedGasLimit": false
    }
  ],
  "receipts": [
    {
      "status": "0x1",
      "cumulativeGasUsed": "0x122e84b",
      "logs": [],
      "logsBloom": "0x00000000000000000000000000000000000000000000000000000000000000000000000000000000000000000000000000000000000000000000000000000000000000000000000000000000000000000000000000000000000000000000000000000000000000000000000000000000000000000000000000000000000000000000000000000000000000000000000000000000000000000000000000000000000000000000000000000000000000000000000000000000000000000000000000000000000000000000000000000000000000000000000000000000000000000000000000000000000000000000000000000000000000000000000000000000",
      "type": "0x2",
      "transactionHash": "0xf5f274c4c9d618c51f6d7b8ca4835fe52c7ae67ca7de61f500a1961cb9c5615b",
      "transactionIndex": "0xbf",
      "blockHash": "0x92525fd92cdc5b03e74b0e6f784c9572b824e8bfb4d7cd9970c97d2d693cf884",
      "blockNumber": "0x7e6f40",
      "gasUsed": "0x42413",
      "effectiveGasPrice": "0x29a74d",
      "from": "0x6abffc2e29842932754e125327099899fb08ae01",
      "to": null,
      "contractAddress": "0x0a3a0f9247a98790afc9ec481c1bfc6efdc6a1fc"
    },
    {
      "status": "0x1",
      "cumulativeGasUsed": "0x123a627",
      "logs": [
        {
          "address": "0xeac97ef3aa1626c05302c17e789b985a5b1d9119",
          "topics": [
            "0x2f8788117e7eff1d82e926ec794901d17c78024a50270940304540a733656f0d",
            "0x7429555b03aa5cf08cc5fc0890c97db295c9cec5e6bb1544bcd7fd1430dae3e2",
            "0x0000000000000000000000000a3a0f9247a98790afc9ec481c1bfc6efdc6a1fc",
            "0x0000000000000000000000006abffc2e29842932754e125327099899fb08ae01"
          ],
          "data": "0x",
          "blockHash": "0x92525fd92cdc5b03e74b0e6f784c9572b824e8bfb4d7cd9970c97d2d693cf884",
          "blockNumber": "0x7e6f40",
          "blockTimestamp": "0x681d51bc",
          "transactionHash": "0xc9ff314e115496c74af9e20a5eade45be6ad249f4c33485492b9b141c0c0a8cf",
          "transactionIndex": "0xc0",
          "logIndex": "0x166",
          "removed": false
        }
      ],
      "logsBloom": "0x00000004200000000000000000000000400000000000000000000000000000000000000000004000000000000000000000000000000000000000000000010000000000000000000000000000000000000000000000000004000000000000000000000000000000000000000000000000000000001000000000000000000000000000000000000000000000000040000000000000000000000000000000000000000000000000000000200000000000000000000000000004001000000000000000000000000000000000000000020000000000000000000100000000000000000000000000000000000000000000000000004000000000000000000000000000",
      "type": "0x2",
      "transactionHash": "0xc9ff314e115496c74af9e20a5eade45be6ad249f4c33485492b9b141c0c0a8cf",
      "transactionIndex": "0xc0",
      "blockHash": "0x92525fd92cdc5b03e74b0e6f784c9572b824e8bfb4d7cd9970c97d2d693cf884",
      "blockNumber": "0x7e6f40",
      "gasUsed": "0xbddc",
      "effectiveGasPrice": "0x29a74d",
      "from": "0x6abffc2e29842932754e125327099899fb08ae01",
      "to": "0xeac97ef3aa1626c05302c17e789b985a5b1d9119",
      "contractAddress": null
    }
  ],
  "libraries": [],
  "pending": [],
  "returns": {
    "vault": {
      "internal_type": "contract Vault",
      "value": "0x0A3a0f9247a98790aFc9Ec481c1bfC6efdc6a1fc"
    }
  },
  "timestamp": 1746751933,
  "chain": 11155111,
  "commit": "ce59dec"
}