{
  "transactions": [
    {
      "hash": "0x217c102609d333474f79b7bd96720efaba4c15dae6f7f81b416c15c9d574a5c8",
      "transactionType": "CREATE",
      "contractName": "Vault",
      "contractAddress": "0x68b7a17f86f74910be0955b0731680eac558b556",
      "function": null,
      "arguments": [
        "0x918501ee99B87Da8A487c4072CEe8Bb94400f69E"
      ],
      "transaction": {
        "from": "0x6abffc2e29842932754e125327099899fb08ae01",
        "gas": "0x56209",
        "value": "0x0",
        "input": "0x60a060405234801561000f575f80fd5b5060405161048b38038061048b83398101604081905261002e9161003f565b6001600160a01b031660805261006c565b5f6020828403121561004f575f80fd5b81516001600160a01b0381168114610065575f80fd5b9392505050565b6080516103ed61009e5f395f8181604f0152818160b60152818161015901528181610204015261029401526103ed5ff3fe608060405260043610610036575f3560e01c806334a4edea14610041578063d0e30db01461008a578063db006a7514610094575f80fd5b3661003d57005b5f80fd5b34801561004c575f80fd5b507f00000000000000000000000000000000000000000000000000000000000000006040516001600160a01b03909116815260200160405180910390f35b6100926100b3565b005b34801561009f575f80fd5b506100926100ae366004610389565b6101e7565b5f7f00000000000000000000000000000000000000000000000000000000000000006001600160a01b0316635257b5666040518163ffffffff1660e01b8152600401602060405180830381865afa158015610110573d5f803e3d5ffd5b505050506040513d601f19601f8201168201806040525081019061013491906103a0565b604051630ab714fb60e11b8152336004820152346024820152604481018290529091507f00000000000000000000000000000000000000000000000000000000000000006001600160a01b03169063156e29f6906064015f604051808303815f87803b1580156101a2575f80fd5b505af11580156101b4573d5f803e3d5ffd5b50506040513492503391507fe1fffcc4923d04b559f4d29a8bfc6cda04eb5b0d3c460751c2402c5c5cc9109c905f90a350565b5f198103610278576040516370a0823160e01b81523360048201527f00000000000000000000000000000000000000000000000000000000000000006001600160a01b0316906370a0823190602401602060405180830381865afa158015610251573d5f803e3d5ffd5b505050506040513d601f19601f8201168201806040525081019061027591906103a0565b90505b604051632770a7eb60e21b8152336004820152602481018290527f00000000000000000000000000000000000000000000000000000000000000006001600160a01b031690639dc29fac906044015f604051808303815f87803b1580156102dd575f80fd5b505af11580156102ef573d5f803e3d5ffd5b50506040515f925033915083908381818185875af1925050503d805f8114610332576040519150601f19603f3d011682016040523d82523d5f602084013e610337565b606091505b5050905080610359576040516303eff1c560e31b815260040160405180910390fd5b604051829033907f222838db2794d11532d940e8dec38ae307ed0b63cd97c233322e221f998767a6905f90a35050565b5f60208284031215610399575f80fd5b5035919050565b5f602082840312156103b0575f80fd5b505191905056fea2646970667358221220718d4e853beaaa622596ed2504287032428933b90b2df820749aa7ad59c1cd3864736f6c63430008180033000000000000000000000000918501ee99b87da8a487c4072cee8bb94400f69e",
        "nonce": "0x85",
        "chainId": "0xaa36a7"
      },
      "additionalContracts": [],
      "isFixedGasLimit": false
    },
    {
      "hash": "0x9d62479e4f6d417d2b5e73557046b3a4af6f3ac5fd943e9c13f9307983839d94",
      "transactionType": "CALL",
      "contractName": null,
      "contractAddress": "0x918501ee99b87da8a487c4072cee8bb94400f69e",
      "function": "grantMintAndBurnRole(address)",
      "arguments": [
        "0x68B7A17f86F74910be0955b0731680EAc558b556"
      ],
      "transaction": {
        "from": "0x6abffc2e29842932754e125327099899fb08ae01",
        "to": "0x918501ee99b87da8a487c4072cee8bb94400f69e",
        "gas": "0x1063d",
        "value": "0x0",
        "input": "0x7cfb3d7100000000000000000000000068b7a17f86f74910be0955b0731680eac558b556",
        "nonce": "0x86",
        "chainId": "0xaa36a7"
      },
      "additionalContracts": [],
      "isFixedGasLimit": false
    }
  ],
  "receipts": [
    {
      "status": "0x1",
      "cumulativeGasUsed": "0x126d4c0",
      "logs": [],
      "logsBloom": "0x00000000000000000000000000000000000000000000000000000000000000000000000000000000000000000000000000000000000000000000000000000000000000000000000000000000000000000000000000000000000000000000000000000000000000000000000000000000000000000000000000000000000000000000000000000000000000000000000000000000000000000000000000000000000000000000000000000000000000000000000000000000000000000000000000000000000000000000000000000000000000000000000000000000000000000000000000000000000000000000000000000000000000000000000000000000",
      "type": "0x2",
      "transactionHash": "0x217c102609d333474f79b7bd96720efaba4c15dae6f7f81b416c15c9d574a5c8",
      "transactionIndex": "0xb2",
      "blockHash": "0x3a06033415e20741ad7eefc1fc3824410730fd0f52b9afd2a3cce7ddd3ddbc2c",
      "blockNumber": "0x7e6f1e",
      "gasUsed": "0x42407",
      "effectiveGasPrice": "0x218916",
      "from": "0x6abffc2e29842932754e125327099899fb08ae01",
      "to": null,
      "contractAddress": "0x68b7a17f86f74910be0955b0731680eac558b556"
    },
    {
      "status": "0x1",
      "cumulativeGasUsed": "0x127929c",
      "logs": [
        {
          "address": "0x918501ee99b87da8a487c4072cee8bb94400f69e",
          "topics": [
            "0x2f8788117e7eff1d82e926ec794901d17c78024a50270940304540a733656f0d",
            "0x7429555b03aa5cf08cc5fc0890c97db295c9cec5e6bb1544bcd7fd1430dae3e2",
            "0x00000000000000000000000068b7a17f86f74910be0955b0731680eac558b556",
            "0x0000000000000000000000006abffc2e29842932754e125327099899fb08ae01"
          ],
          "data": "0x",
          "blockHash": "0x3a06033415e20741ad7eefc1fc3824410730fd0f52b9afd2a3cce7ddd3ddbc2c",
          "blockNumber": "0x7e6f1e",
          "blockTimestamp": "0x681d5024",
          "transactionHash": "0x9d62479e4f6d417d2b5e73557046b3a4af6f3ac5fd943e9c13f9307983839d94",
          "transactionIndex": "0xb3",
          "logIndex": "0xfd",
          "removed": false
        }
      ],
      "logsBloom": "0x00000004200000000000000000000000000000000000000000000000000000000000000000000000000000000000000000000000000000000000000000010000000000000000000000000000000000000000000000000000000000000000000000000008000000000000000000000000000000001000000000000000000000000000000000000000000000000020020000000000000000000000000040000000000000000000000000000000000000000000000000000004001000000000000000000000000000000000000000020000000000000000000100000200000000000000000000000000000000000000000000004000000000008000000000000000",
      "type": "0x2",
      "transactionHash": "0x9d62479e4f6d417d2b5e73557046b3a4af6f3ac5fd943e9c13f9307983839d94",
      "transactionIndex": "0xb3",
      "blockHash": "0x3a06033415e20741ad7eefc1fc3824410730fd0f52b9afd2a3cce7ddd3ddbc2c",
      "blockNumber": "0x7e6f1e",
      "gasUsed": "0xbddc",
      "effectiveGasPrice": "0x218916",
      "from": "0x6abffc2e29842932754e125327099899fb08ae01",
      "to": "0x918501ee99b87da8a487c4072cee8bb94400f69e",
      "contractAddress": null
    }
  ],
  "libraries": [],
  "pending": [],
  "returns": {
    "vault": {
      "internal_type": "contract Vault",
      "value": "0x68B7A17f86F74910be0955b0731680EAc558b556"
    }
  },
  "timestamp": 1746751525,
  "chain": 11155111,
  "commit": "ce59dec"
}